:020000040800F2
:10000000A00700206D1D0008C1020008C3020008FF
:10001000C7020008CB020008CF0200080000000061
:10002000000000000000000000000000D3020008F3
:10003000D502000800000000D7020008D90200081D
:10004000871D0008871D0008871D0008871D000800
:10005000871D0008871D0008871D0008871D0008F0
:10006000871D0008871D0008871D0008871D0008E0
:10007000871D0008871D0008871D0008871D0008D0
:10008000871D0008871D0008871D0008871D0008C0
:10009000871D0008871D0008871D0008871D0008B0
:1000A000871D0008871D0008871D0008871D0008A0
:1000B00053150008871D00080F160008871D00084B
:1000C000871D0008871D0008871D0008871D000880
:1000D000871D000851180008871D0008871D0008AB
:1000E000871D0008871D0008871D0008871D000860
:1000F000871D0008871D0008871D0008871D000850
:10010000871D0008871D0008871D0008871D00083F
:10011000871D0008871D0008871D0008871D00082F
:10012000871D0008871D0008871D0008871D00081F
:10013000871D0008871D0008871D0008871D00080F
:10014000871D0008871D0008871D0008871D0008FF
:10015000871D0008871D0008871D0008871D0008EF
:10016000871D0008871D0008871D0008871D0008DF
:10017000871D0008871D0008871D0008871D0008CF
:10018000871D0008871D000800F002F800F05CF8E9
:100190000AA090E8000C82448344AAF10107DA45E2
:1001A00001D100F051F8AFF2090EBAE80F0013F0D8
:1001B000010F18BFFB1A43F001031847203C000051
:1001C000403C00000A444FF0000C10F8013B13F0D3
:1001D000070408BF10F8014B1D1108BF10F8015BA0
:1001E000641E05D010F8016B641E01F8016BF9D193
:1001F00013F0080F1EBF10F8014BAD1C0C1B09D1EA
:100200006D1E58BF01F801CBFAD505E014F8016B5B
:1002100001F8016B6D1EF9D59142D6D370470000ED
:100220000023002400250026103A28BF78C1FBD8FF
:10023000520728BF30C148BF0B6070471FB503F09D
:10024000C7FD1FBD10B510BD03F099FB1146FFF7A8
:10025000F5FF00F009F803F0B7FB03B4FFF7F2FF76
:1002600003BC03F0BFFB000001F05AFB01F04EFBA2
:100270004FF4FA7000F04BF917E00F49097801EBE1
:1002800041010E4A1144487801F00BFD0A4A1278E8
:1002900002EB4202094B1A449178074A127802EBAA
:1002A00042021A44507801F0E7FC03480078052820
:1002B000E3DB00BFFEE70000100100201101002079
:1002C000704700BFFEE700BFFEE700BFFEE700BFCC
:1002D000FEE7704770477047704700000CB500207C
:1002E000019000907648006840F4803074490860BE
:1002F00000BF7348006800F4003000900198401C73
:100300000190009818B90198B0F5A04FF1D16C4850
:10031000006800F4003010B10120009001E00020DE
:1003200000900098012846D165484030006840F0B0
:1003300080506349403108606248006840F44040A2
:10034000604908605E48083000685D49083108600F
:100350000846006840F4004008600846006840F421
:10036000A05008605848091F0860081F006840F046
:100370008070091F086000BF5148006800F00070DD
:100380000028F9D040F20570504908604C48083008
:10039000006820F003004A490831086008460068F8
:1003A00040F00200086000BF45480830006800F0D7
:1003B0000C000828F8D10CBD10B54548006840F481
:1003C0007000434908603E48006840F001003C4925
:1003D000086000203A4908310860394800683D4902
:1003E0000840374908603C48091D0860081F00683C
:1003F00020F48020091F0860002031490C3108607A
:10040000FFF76CFF4FF0006031498039086010BD84
:1004100070B500200022022300240221284D083557
:100420002D6805F00C0020B1042806D0082834D12E
:1004300007E02A4D2A4E356033E02A4D284E3560BC
:100440002FE01F4D2D1D2D68C5F380541C4D2D1D13
:100450002D6805F03F0154B1224DB5FBF1F5184E62
:10046000361D3668C6F3881605FB06F209E01B4DFB
:10047000B5FBF1F5124E361D3668C6F3881605FB3E
:1004800006F20F4D2D1D2D68C5F301456D1C6B0047
:10049000B2FBF3F5124E356003E0104D104E35609F
:1004A00000BF00BF064D08352D68C5F303150E4E7D
:1004B000705D0B4D2D68C540094E356070BD000064
:1004C000003802400070004008544007003C0240E1
:1004D00088ED00E0FFFFF6FE103000240024F40059
:1004E0000000002000127A000400002000BF011E5E
:1004F000A0F10100FBD1704710B50446A82303E02A
:100500002046FFF7F3FF5B1E002BF9D110BD30B57D
:10051000054640F2E73403E02846FFF7EDFF641E8E
:10052000002CF9D130BD30B5054640F2E63403E089
:100530002846FFF7ECFF641E002CF9D130BD000007
:10054000014609B9FE487047012901D1FD48FAE783
:10055000022901D1FC48F6E7032901D1F948F2E765
:100560000120F0E710B5F9480068012809D1012100
:10057000F74801F08DFD4FF48071F54801F08AFDD8
:1005800015E0F248006848B90121F14801F082FD08
:100590004FF48071EE4801F07BFD08E00121EC484A
:1005A00001F076FD4FF48071E94801F071FDE948F2
:1005B0000068012808D10221E54801F069FD2021E9
:1005C000E34801F067FD13E0E248006840B902210A
:1005D000DF4801F05FFD2021DD4801F059FD07E013
:1005E0000221DB4801F054FD2021D94801F050FDE3
:1005F000D9480068012808D10421D54801F048FDF8
:100600004021D34801F046FD13E0D348006840B9CB
:100610000421CF4801F03EFD4021CD4801F038FDD6
:1006200007E00421CA4801F033FD4021C84801F029
:100630002FFDCA480068012808D10821C44801F0EC
:1006400027FD8021C24801F025FD13E0C348006862
:1006500040B90821BE4801F01DFD8021BC4801F0D1
:1006600017FD07E00821BA4801F012FD8021B848C3
:1006700001F00EFD10BD2DE9F04104460F46154670
:100680001E46B74804602146B64802F012FBB64841
:1006900007603946B34802F00EFBB44805602946AE
:1006A000B04802F00AFBB24806603146AD4802F09D
:1006B00006FBBDE8F08110B50446AE480368026849
:1006C00001680068FFF7D7FFA0480460A1480460F4
:1006D000A1480460A1480460FFF744FF10BD10B5B5
:1006E00004460120A449086000F0A8FB28231A460C
:1006F00019461846FFF7BFFF012C0CD10120934982
:100700000860002093490860012093490860002098
:10071000924908600BE000208C49086001208D4957
:10072000086000208C49086001208C490860FFF7B0
:1007300019FF9248FFF7E0FE11E091480068012898
:1007400005D181028F4801F089FC38B108E04FF4EF
:1007500000618C4801F082FC00B101E000BFECE7D1
:1007600000BFC82003F0E8F82046FFF7A4FF814847
:100770000368026801680068FFF77DFF4FF48C7022
:10078000FFF7C5FE00207C49086010BD10B5044687
:1007900001207949086000F051FB28231A461946C8
:1007A0001846FFF768FF012C0CD10020674908604C
:1007B00001206849086000206749086001206749F6
:1007C00008600BE001206149086000206149086071
:1007D000012061490860002060490860FFF7C2FEFF
:1007E0006648FFF789FE02E000F0C5FA00BF6648E0
:1007F00000680028F8D0C82003F09EF82046FFF7D4
:100800005AFF5C480368026801680068FFF733FF1D
:100810004FF48C70FFF77BFE00205749086010BD35
:1008200010B50446012C21D14F48006808304E49CC
:1008300008604F48006808304D4908604848006823
:10084000083847490860494800680838474908603F
:100850004748036808460268434801684048006802
:10086000FFF709FF0A20FFF752FE20E03C4800682E
:1008700008303B4908603D48006808303B49086043
:10088000394800680838384908603948006808382D
:1008900037490860084603683448026832480168EE
:1008A0002F480068FFF7E7FE0A20FFF730FE10BD73
:1008B00010B50446012C21D1294800680830284988
:1008C00008602A48006808302849086026480068FF
:1008D0000838254908602648006808382449086017
:1008E00008460368214802681F4801681C480068E0
:1008F000FFF7C1FE0A20FFF70AFE20E01A48006851
:100900000830194908601A4800680830184908601A
:10091000134800680838124908601448006808380D
:100920001249086012480368084602680E480168C8
:100930000B480068FFF79FFE0A20FFF7E8FD10BD97
:100940003897080090230B0010EB09002C000020C2
:100950000014024030000020340000203800002045
:1009600018000020000400401C000020200000208F
:1009700024000020140000204800002080380100DE
:100980003C000020000402405000002010B5044646
:10099000012C21D19F48006808309E4908609E487C
:1009A000006808309C4908609C48006808389B49EA
:1009B00008609B48006808389949086096480368B1
:1009C000084602689348016894480068FFF753FEA0
:1009D0001920FFF79CFD20E09048006808308F49FF
:1009E00008608F48006808308D49086089480068B1
:1009F00008388849086088480068083886490860CF
:100A0000084603688648026882480168834800688F
:100A1000FFF731FE1920FFF77AFD10BD10B504462F
:100A2000012C21D17D48006808307C4908607C4851
:100A3000006808307A4908607648006808387549C7
:100A400008607548006808387349086008460368FC
:100A5000734802686F48016870480068FFF70BFE32
:100A60001920FFF754FD20E06A4800680830694902
:100A7000086069480068083067490860674800688E
:100A800008386649086066480068083864490860A4
:100A900061480368084602685E4801685F4800686C
:100AA000FFF7E9FD1920FFF732FD10BD00205D4979
:100AB0000860704710B55B480068012878D15A4932
:100AC00008605A480068082876D006DC012809D05A
:100AD000022810D004286DD116E0102875D02028E7
:100AE0007CD158E052480068FFF79AFE50480068F1
:100AF000FFF7E1FD76E04E480068FFF747FF4C48FE
:100B00000068FFF7D8FD6DE04A480078012809D158
:100B100047480068FFF73AFE46480078401C4549C0
:100B2000087037E04348007802280CD10020404983
:100B3000086008460068FFF729FE3E480078401C20
:100B40003C49087026E03B480078032809D1384822
:100B50000068FFF7C4FD37480078401C354908702D
:100B600018E03448007804280ED132480078401C40
:100B70003049087001202C490860C820FFF7C7FCE5
:100B800000202949086005E02A480078052801D19D
:100B9000FFF78CFF26E02748007840B9244800681A
:100BA000FFF79DFD23480078401C2249087019E09A
:100BB0001DE001E012E008E01D480068FFF778FE44
:100BC0001B480068FFF777FD0CE019480068FFF745
:100BD00025FF17480068FFF76EFD03E0002012496B
:100BE000086000BF00BF00200F49086002E002203B
:100BF000FFF761FD10BD01200A49086070470948F0
:100C00000068704710B5FFF751FF0220FFF753FD52
:100C100010BD00001C00002024000020180000204F
:100C20002000002044000020480000206C0000202C
:100C30003C0000202800002010B50121B24801F03E
:100C40000DFAB24908700221AF4801F007FAAF4926
:100C500048700421AC4801F001FAAC4988700821C1
:100C6000A94801F0FBF9A949C8701021A64801F074
:100C7000F5F9A64908712021A34801F0EFF9A3492D
:100C800048714021A04801F0E9F9A049887180210C
:100C90009D4801F0E3F99D49C8714FF480719A486D
:100CA00001F0DCF9994908724FF40071964801F09F
:100CB000D5F9964948729648006801282DD1084612
:100CC000007818B104209349086053E08F484079B8
:100CD00018B120208F4908604CE08C48407818B14A
:100CE00002208C49086045E08848007918B110203E
:100CF000884908603EE08548807818B10120854920
:100D0000086037E08148C07818B108208149086040
:100D100030E000207F4908602CE07C48007818B162
:100D200020207C49086025E07848407918B10420EB
:100D3000784908601EE07548407A18B1102075495E
:100D4000086017E07148807918B102207149086085
:100D500010E06E48007A18B108206E49086009E07A
:100D60006A48C07918B101206A49086002E0002091
:100D70006849086010BD10B50121634801F06EF9A3
:100D8000624908700221604801F068F95F494870C3
:100D900004215D4801F062F95C49887008215A48D5
:100DA00001F05CF95949C8701021574801F056F913
:100DB000564908712021544801F050F953494871AF
:100DC0004021514801F04AF95049887180214E482C
:100DD00001F044F94D49C8714FF480714A4801F05F
:100DE0003DF94A4908724FF40071474801F036F95D
:100DF000464948724FF48061434801F02FF9434956
:100E000088724FF40061404801F028F93F49C872E8
:100E10003F480068012808D10846807A68B101205F
:100E20003D4908603D49086007E03848C07A20B174
:100E30000120394908603949086010BD0020364951
:100E4000086036490860704710B50121344801F048
:100E500005F9344908600221314801F0FFF83149B1
:100E6000486004212E4801F0F9F82E4988600821D5
:100E70002B4801F0F3F82B49C8600846006870B1B0
:100E80000846806830B90846406818B909202649E4
:100E9000086038E04FF0FF302349086033E0214814
:100EA0004068C0B11F48806850B11E48C06818B182
:100EB00007201D49086026E006201B49086022E043
:100EC0001848C06818B10520174908601BE00420C5
:100ED0001549086017E01348806850B11148C06890
:100EE00018B10320104908600DE002200E49086087
:100EF00009E00C48C06818B101200B49086002E005
:100F000000200949086010BD00040240340100209F
:100F10003C0000206C000020500000204C0000200D
:100F2000000002405C0000205800002070B52DED4C
:100F3000048B04460D464FF4B47104FB01F002F03B
:100F4000E0FE9FED150B53EC102B02F053FD02F069
:100F5000A9FE0646012D04D10421114801F098F89C
:100F600003E004210E4801F095F810E04FF48051A1
:100F70000C4801F08DF8A020FFF7BEFA4FF4805125
:100F8000084801F087F8A020FFF7B6FA761E002E79
:100F9000ECDCBDEC048B70BDCDCCCCCCCCCC1C40FF
:100FA000000802400014024070B52DED048B044689
:100FB0000D46200102F0A5FE41EC190B9FEDBC0B84
:100FC00053EC102B02F016FD41EC180B02F06AFEF8
:100FD0000646012D04D10121B74801F05BF803E07A
:100FE0000121B54801F054F810E04FF48061B34896
:100FF00001F04EF81E20FFF77FFA4FF48061AF48F2
:1010000001F048F81E20FFF777FA761E002EECDC80
:10101000BDEC048B70BD2DE9F0412DED048B044631
:101020000D461646200102F06CFE9FEDA10B53EC1D
:10103000102B02F0DFFC02F035FE0746C6EB06106F
:101040004FEA4008012D04D101219B4801F022F80C
:1010500003E00121984801F01BF810E04FF4806193
:10106000964801F015F84046FFF746FA4FF48061C4
:10107000924801F00FF84046FFF73EFA7F1E002F1E
:10108000ECDCBDEC048BBDE8F08170B52DED048B7C
:1010900004460D46200102F034FE41EC190B9FED91
:1010A000880B53EC102B02F0A5FC41EC180B02F05E
:1010B000F9FD0646012D04D102217F4800F0E8FF2A
:1010C00003E002217C4800F0E5FF10E04FF40061EE
:1010D0007A4800F0DDFF0F20FFF70EFA4FF40061B1
:1010E000764800F0D7FF0F20FFF706FA761E002E95
:1010F000ECDCBDEC048B70BD70B52DED048B0646A9
:101100000C46304602F0FDFD41EC190B9FED680BDB
:1011100053EC102B02F06EFC41EC180B02F0C2FDF8
:101120000546012C08D10121634800F0B3FF0221DC
:10113000614800F0ADFF07E001215F4800F0A8FF23
:1011400002215D4800F0A6FF3AE04FF400615B48E1
:1011500000F09EFF4FF48061584800F099FFFA209C
:10116000FFF7CAF94FF40061544800F093FFFA20EA
:10117000FFF7C2F94FF40061504800F089FFFA20F0
:10118000FFF7BAF94FF400614C4800F083FF4FF4C9
:1011900080614A4800F07EFFFA20FFF7ADF94FF476
:1011A0000061464800F074FFFA20FFF7A5F94FF4FC
:1011B0000061424800F06EFFFA20FFF79DF96D1EB6
:1011C000002DC2DCBDEC048B70BD70B52DED048B21
:1011D00006460C46304602F094FD41EC190B9FED9B
:1011E0003A0B53EC102B02F005FC41EC180B02F00B
:1011F00059FD0546012C04D104212F4800F048FF79
:1012000003E004212C4800F045FF12E04FF4805128
:101210002A4800F03DFF40F2EE20FFF76DF94FF451
:101220008051264800F036FF40F2EE20FFF764F9C7
:101230006D1E002DEADCBDEC048B70BD70B52DED8C
:10124000048B06460C46304602F05BFD41EC190B60
:101250009FED1D0B53EC102B02F0CCFB41EC180B57
:1012600002F020FD0546012C04D10821124800F0AF
:101270000FFF03E00821104800F00CFF12E04FF4CC
:1012800000510E4800F004FF40F2EE20FFF734F961
:101290004FF40051094800F0FDFE40F2EE20FFF748
:1012A0002BF96D1E002DEADCBDEC048B70BD000037
:1012B0000AD7A3703D0AC73F00080240001402404D
:1012C000F4FDD478E926B13F0AD7A3703D0AB73FB1
:1012D00000B58BB00121022001F045F90121042065
:1012E00001F0F8F802220621FA4800F0E0FE02229E
:1012F0000721F84800F0DBFE02220821F54800F043
:10130000D6FE02220921F34800F0D1FE4FF470709E
:10131000099002208DF8280003208DF82900002074
:101320008DF82A0001208DF82B0009A9E94800F06A
:1013300033FE5320ADF818000020ADF81A0031201C
:1013400007900020ADF8200006A9E34801F0C3FA99
:101350006020ADF804000120ADF806000020ADF8D3
:10136000100001A9DC4801F04BFB01A9DA4801F0AB
:1013700080FB01A9D84801F0C9FB01A9D64801F0BA
:101380002BFC0821D44801F0C8FC0821D24801F008
:10139000CDFC0821D04801F0D6FC0821CE4801F050
:1013A000DBFC0121CC4801F001FB0121CA4801F01E
:1013B0001BFB0BB000BD00B58BB00121402001F03C
:1013C000D2F80121802001F0CEF80121080201F0BD
:1013D000CAF80121084601F07DF80121022001F040
:1013E00079F809220E21BD4800F061FE09220F2183
:1013F000BA4800F05CFE09220621B94800F057FE09
:1014000009220721B64800F052FEC02009900220B0
:101410008DF8280003208DF8290000208DF82A007F
:1014200001208DF82B0009A9AD4800F0B5FD4FF45F
:101430004040099009A9A94800F0AEFD40F21360B0
:10144000ADF818000020ADF81A00B3200790002076
:10145000ADF8200006A9A34801F03DFA06A9A2486C
:1014600001F039FA06A9A14801F035FA6020ADF87B
:1014700004000120ADF806000020ADF8100001A91D
:10148000984801F0BDFA01A9974801F0B9FA01A9FD
:10149000964801F0B5FA01A9924801F0EAFA08214C
:1014A000904801F03AFC08218F4801F036FC0821F1
:1014B0008E4801F032FC08218A4801F037FC0121F6
:1014C000884801F073FA0121874801F06FFA012181
:1014D000864801F06BFA0121824801F085FA01216A
:1014E000814801F081FA0121804801F07DFA0BB0BA
:1014F00000BD1FB50121084601F035F8C720029054
:1015000040F24730ADF804000020ADF80600ADF819
:101510000C0001A94FF0804001F0DDF901221146D5
:10152000900701F079FE0121880701F05DFA1C2087
:101530008DF8000001208DF801008DF802008DF873
:101540000300684600F037FC0121880701F08CFE9B
:101550001FBD10B50121880701F075FE01281FD1BC
:101560006348006808B9FFF767FBFFF76DFC614847
:10157000007800EB40006049085C604909688842D7
:1015800007D15F48007820B9FFF790FA01205C4945
:101590000870FFF734FB18B95848006859490860CB
:1015A0000121880701F060FE10BD1FB50121042054
:1015B00000F0D9FF40F2F310029042F29300ADF830
:1015C00004000020ADF80600ADF80C0001A94E485B
:1015D00001F081F9012211464B4801F01DFE012165
:1015E000494801F001FA1E208DF8000001208DF815
:1015F000010000208DF8020001208DF803006846EC
:1016000000F0D9FB0121404801F02EFE1FBD10B5AE
:1016100001213D4801F017FE012804D1344800683B
:1016200008B9FFF747FA0121374801F01DFE10BD48
:101630001CB50121022000F04DFF40F6FF70009024
:1016400000208DF804008DF8060003208DF80500B9
:1016500002208DF807006946204800F09DFC1CBD63
:101660001CB50121202000F035FF40F2EF10009062
:1016700001208DF8040000208DF8060003208DF86D
:10168000050001208DF807006946204800F084FC21
:1016900001211E4800F0FCFC4FF480711B4800F053
:1016A000F9FC0421194800F0F3FC4021174800F030
:1016B000F1FC0221154800F0EBFC2021134800F05A
:1016C000E9FC0821114800F0E3FC80210F4800F0FC
:1016D000E1FC1CBD00080240000400400004024080
:1016E0000000024000180040001C004000200040A4
:1016F00048000020100100201101002058000020A7
:10170000880000205400002000080040001402401F
:101710001CB50121042000F0DDFE0F200090012007
:101720008DF8040000208DF8060003208DF80500D8
:1017300001208DF807006946864800F02DFC1CBD8D
:101740001CB50121202000F0C5FE4FF47050009020
:1017500001208DF8040000208DF8060003208DF88C
:10176000050001208DF8070069467B4800F014FC55
:101770001CBD1CB50121084600F0ACFEF020009015
:1017800001208DF8040000208DF8060003208DF85C
:10179000050001208DF807006946704800F0FCFB49
:1017A0001CBD00B587B00121084600F093FE012161
:1017B000102000F0E9FE07220921684800F077FCBC
:1017C00007220A21654800F072FC4FF4C0600590C2
:1017D00002208DF8180000208DF819008DF81A00ED
:1017E00001208DF81B0005A95C4800F0D5FB4FF4E3
:1017F000964001900020ADF80800ADF80A00ADF861
:101800000C00ADF810000C20ADF80E0001A95448F2
:1018100001F06DFE0121524801F0F1FE40215048D7
:1018200001F0D5FF012240F225514D4801F09DFF06
:1018300025208DF8000003208DF801008DF80200AE
:1018400001208DF80300684600F0B5FA07B000BD2E
:1018500010B5002440F22551414801F0C1FF38B3D2
:1018600040F225513E4801F0F6FF3E48008850B94D
:1018700000BF03E000203C490855641C142CF9DB30
:10188000FF2039490872364801F0E8FE3649354AEA
:101890001288885433480088401C32490880084622
:1018A000008832490978884202D100202D490880F9
:1018B00040F227712A4801F093FF20B140F22771CE
:1018C000274801F0C8FF40F22661254801F088FF53
:1018D00020B140F22661224801F0BDFF10BD1CB5C9
:1018E0000121084600F0F6FD00208DF804008DF877
:1018F000060003208DF805000F20009002208DF8CF
:1019000007006946154800F047FB1CBD10B5FFF7FE
:10191000F0FDFFF7DDFCFFF748FEFFF74CFD10BDC3
:1019200010B5FFF785FEFFF79BFEFFF7F1FEFFF70F
:1019300007FFFFF71EFFFFF734FFFFF7D0FF0C484C
:1019400000680C49B0FBF1F0C4B2204601F092FFF0
:1019500010BD0000000802400014024000000240D8
:10196000001001408600002070000020840000204C
:101970000000002040420F0010B504462146F24806
:1019800001F097F9C4F1B401F04801F092F910BDEB
:1019900010B5044600212820FFF706FB0021232074
:1019A000FFF773FB00211E20FFF7FEFA8720FFF7E9
:1019B000E3FF4CF25030FEF79FFD022C0FD006DD06
:1019C000E34951F824000121FFF7B0FA07E0022CA7
:1019D00005DAE04951F824000021FFF7A7FA0021B9
:1019E0000F20FFF752FB01212820FFF7DDFA4E21DF
:1019F000D94801F05EF949F64040FEF77DFD4A21E5
:101A0000D54801F058F92820FFF7B6FF002114202F
:101A1000FFF7CAFA01211420FFF737FB0021372016
:101A2000FFF7C2FA00215A20FFF72FFB00215020B8
:101A3000FFF7BAFA00213C20FFF727FB00213820EE
:101A4000FFF7B2FA01210D20FFF71FFB5A20FFF725
:101A500093FF5A21C04801F02CF9C0480078401C7F
:101A6000BE4908700846007800EB4000BC49085C9D
:101A7000BC490968884204D0FFF7BDF80020BA4984
:101A8000087010BD10B5044600211E20FFF78CFA27
:101A900000211E20FFF7F9FA00212320FFF784FA26
:101AA00000212820FFF7F1FA4B20FFF765FF002106
:101AB0003320FFF779FA00211420FFF7E6FA00211E
:101AC0001E20FFF771FA4620FFF756FF0021322053
:101AD000FFF7DBFA00212820FFF766FA022C0FD06F
:101AE00006DD9B4951F824000121FFF71FFA07E0AA
:101AF000022C05DA974951F824000021FFF716FA65
:101B00006E20FFF739FF4CF25030FEF7F5FC012153
:101B10002320FFF749FA01211420FFF7B6FA01212B
:101B20002820FFF741FA01211420FFF7AEFA49F609
:101B30004040FEF7E1FC4A21874801F0BCF8002153
:101B40001920FFF7A2FA00213220FFF72DFA002119
:101B50002820FFF79AFA00214620FFF725FA5A209D
:101B6000FFF70AFF5A217C4801F0A3F87B48007870
:101B7000401C7A4908700846007800EB400078491C
:101B8000085C78490968884204D0FFF734F80020DF
:101B90007549087010BD10B5044600211E20FFF7DE
:101BA00003FA00211E20FFF770FA00212320FFF71F
:101BB000FBF900212820FFF768FA4B20FFF7DCFE35
:101BC00000213320FFF7F0F900210F20FFF75DFA25
:101BD00000211E20FFF7E8F94120FFF7CDFE00218C
:101BE0003C20FFF752FA00212820FFF7DDF94620BC
:101BF000FFF7C2FE022C0FD006DD554951F8240034
:101C00000121FFF793F907E0022C05DA514951F859
:101C100024000021FFF78AF900212820FFF735FA78
:101C200001215A20FFF7C0F949F64040FEF764FC55
:101C30004A21494801F03FF800218220FFF7B4F91A
:101C40005A20FFF799FE5A21434801F032F84348E1
:101C50000078401C414908700846007800EB4000BD
:101C60003F49085C3F490968884204D0FEF7C3FF3A
:101C700000203D49087010BD70B505460C46022C89
:101C800003D12846FFF784FE0AE0032C03D128463F
:101C9000FFF7F8FE04E0042C02D12846FFF77BFF93
:101CA00070BD10B5044600BF2F4800780028FBD057
:101CB0005A20FFF761FE5A21274800F0FAFF4A2117
:101CC000254800F0F8FF01210F20FFF76DF987206C
:101CD000FFF752FE022C0FD006DD1E4951F82400FA
:101CE0000021FFF723F907E0022C05DA184951F823
:101CF00024000121FFF71AF901215520FFF754F9BB
:101D000001216420FFF7C1F93720FFF735FE44F6C3
:101D10002060FEF7F1FB01212820FFF745F90121A2
:101D20001420FFF7B2F901215420FFF73DF91E20DE
:101D3000FEF7EDFB01213920FFF7A7F95F210648E7
:101D400000F0B9FF10BD0000001C00400020004062
:101D50008C000020A000002000180040100100208E
:101D6000110100205400002088000020094880470D
:101D700009480047FEE7FEE7FEE7FEE7FEE7FEE76D
:101D8000FEE7FEE7FEE7FEE704480549054A064B85
:101D900070470000B903000889010008A001002075
:101DA000A0070020A0030020A00300203249014327
:101DB000324A1160704770B5002100230F22C478A9
:101DC0001CB32E4C246804F4E064C4F5E064C4F34E
:101DD0000721C1F10404E3B20A4144789C40E1B216
:101DE0008478144021430C07210E254C0578615559
:101DF000047804F01F050124AC4005786D11AD0096
:101E000005F1E025C5F8004109E0047804F01F055C
:101E10000124AC401B4D0678761145F8264070BD74
:101E2000194A0A400243154B1B1F1A60704739B10B
:101E3000124A121D12680243104B1B1D1A6006E065
:101E40000E4A121D126882430C4B1B1D1A6070470C
:101E5000042808D14FF0E021096941F004014FF056
:101E6000E022116107E04FF0E021096921F004014F
:101E70004FF0E022116170470000FA050CED00E020
:101E800000E400E080E100E080FFFF1F10B50446A1
:101E90009848844208D10121084600F086FB0021C1
:101EA000012000F082FB76E09348844208D10121B2
:101EB000022000F07AFB0021022000F076FB6AE0AD
:101EC0008E48844208D10121042000F06EFB0021DD
:101ED000042000F06AFB5EE08948844208D10121B9
:101EE000082000F062FB0021082000F05EFB52E0B9
:101EF0008448844208D10121102000F056FB0021C3
:101F0000102000F052FB46E07F48844208D10121B6
:101F1000202000F04AFB0021202000F046FB3AE0A0
:101F20007A48844208D10121402000F03EFB002184
:101F3000402000F03AFB2EE07548844208D1012190
:101F4000802000F032FB0021802000F02EFB22E0F8
:101F50007048844208D10121801500F026FB002141
:101F6000A01500F022FB16E06B48844208D1012145
:101F7000401500F01AFB0021601500F016FB0AE086
:101F80006648844207D10121001500F00EFB0021B4
:101F9000201500F00AFB10BDF0B50A460021002311
:101FA000002400BF3DE0012505FA01F3156805EAAC
:101FB00003049C4234D105684F000326BE40B5435C
:101FC000056015794E00B540066835430560157902
:101FD000012D02D01579022D16D185684F000326F8
:101FE000BE40B543856055794E00B540866835439F
:101FF0008560456801268E40B54345604568967901
:102000008E40B6B235434560C5684F000326BE40DA
:10201000B543C560D5794E00B540C6683543C56047
:10202000491C1029BFD3F0BD4FF6FF71016000219C
:10203000017141718171C171704708B54FF48032EF
:102040000092009A0A430092009AC261C161009A0C
:10205000C261C2690092C269009208BD02460020B6
:1020600013690B400BB1012000E0002070470146CE
:10207000086980B270470246002053690B400BB1DB
:10208000012000E0002070470146486980B2704797
:1020900001837047418370470AB1018300E04183A7
:1020A00070474161704742694A4042617047F0B5EC
:1020B000002300244D07ED0E02FA05F3CE1000F1C7
:1020C000200555F826504E07F70E0F26BE40B543A3
:1020D000CF1000F1200646F82750CE1000F1200561
:1020E00055F8265045EA0304CE1000F1200545F8C6
:1020F0002640F0BD000002400004024000080240FB
:10210000000C02400010024000140240001802407F
:10211000001C02400020024000240240002802402F
:10212000F948006840F00100F74908600020F649CE
:1021300008310860F4480068F4490840F249086032
:10214000F348091D0860F348EF4984310860F048FE
:102150001038091D0860EC48006820F48020EA4926
:1021600008600020E8490C310860E7498C310860BC
:1021700070470021E44A921C1170114608707047A4
:1021800010B501460022002300204A11012A02D185
:10219000DD4C236808E0022A03D1DB4C703423684D
:1021A00002E0D94C7434236801F01F0201249440EA
:1021B0001C400CB1012000E0002010BD38B500200B
:1021C00000900024002500BF3120FFF7D9FF05460D
:1021D0000098401C00900098B0F5A04F01D0002D51
:1021E000F2D03120FFF7CCFF08B1012400E0002439
:1021F000204638BD01460020C34A106820F0F80090
:1022000040EAC10010607047C34908607047002170
:10221000BD4A703211701170012802D004280AD111
:1022200004E00121B84A7032117005E00521B64A78
:102230007032117000E000BF00BF7047B7490860FE
:10224000704770B5049C41EA82150126C6EB53061F
:1022500045EA0645054345EA0465AB4E361D356043
:1022600070BDAD4908667047820142EA0172A64B13
:1022700084331A607047A8498866704710B5830197
:1022800043EA016343EA02739F4C8834236010BD24
:10229000A14908677047A049C864704702460020FA
:1022A000994B0833186820F0EC6042EA01031843A8
:1022B000954B08331860704702460020924B083354
:1022C000186820F0784042EA010318438E4B083327
:1022D00018607047014600208B4A0832106820F0D1
:1022E000030008431060704787480830006800F01A
:1022F0000C00704701460020834A0832106820F025
:10230000F000084310607047014600207E4A083202
:10231000106820F4E0500843106070470146002028
:10232000794A0832106820F4604040EAC100106029
:102330007047F0B500210022002402250026022368
:10234000714F08373F6807F00C0121B1042905D00F
:10235000082937D105E0724F076036E0714F0760FA
:1023600033E0694F3F1D3F68C7F38056664F3F1DFE
:102370003F6807F03F036EB16A4FB7FBF3F7DFF832
:1023800088C10CF1040CDCF800C0CCF3881C07FBFE
:102390000CF40CE0624FB7FBF3F7DFF86CC10CF103
:1023A000040CDCF800C0CCF3881C07FB0CF4564F7F
:1023B0003F1D3F68C7F301477F1C7D00B4FBF5F765
:1023C000076002E0564F076000BF00BF4E4F08375E
:1023D0003F6807F0F0010909534F7A5C0768D7405E
:1023E0004760494F08373F6807F4E051890A4E4F6C
:1023F0007A5C4768D7408760434F08373F6807F4E7
:102400006041490B484F7A5C4768D740C760F0BDD0
:10241000002100F44072B2F5407F0AD13A4A0832F6
:10242000116821F4F811414A02401143364A08323A
:102430001160354A70321268C0F30B031A43324BF5
:1024400070331A6070473549443908607047334922
:1024500040390860704736490860704701460020DF
:10246000294A8C32106820F01F004A1E1043264A69
:102470008C321060704701460020234A8C3210686D
:1024800020F4F8504A1E40EA02201F4A8C321060A5
:102490007047014600201C4A8C32106820F440101E
:1024A00008431060704701460020174A8C321068BC
:1024B00020F4400008431060704701460020124A93
:1024C0008C32106820F4403008431060704719497E
:1024D0000860704739B10C4A3032126802430A4B27
:1024E00030331A6006E0084A303212688243064BE5
:1024F00030331A607047F9B1034A3432126802432C
:10250000014B34331A601CE000380240FFFFF6EA4A
:10251000103000240030002000004742800E474267
:102520000024F40000127A0020010020FFFCFF0FBD
:102530005C014742E01147428F4A126882438E4B4A
:102540001A60704739B18C4A121D126802438A4BD7
:102550001B1D1A6006E0884A121D12688243864BD2
:102560001B1D1A60704739B1834A0C32126802434E
:10257000814B0C331A6006E07F4A0C3212688243AA
:102580007D4B0C331A60704739B17B4A10321268A8
:102590000243794B10331A6006E0774A1032126812
:1025A0008243754B10331A60704739B1724A243A2E
:1025B00012680243704B243B1A6006E06E4A243ACC
:1025C000126882436C4B243B1A60704739B16A4AE7
:1025D000203A12680243684B203B1A6006E0664AC4
:1025E000203A12688243644B203B1A60704739B12D
:1025F000614A1C3A126802435F4B1C3B1A6006E0BA
:102600005D4A1C3A126882435B4B1C3B1A60704760
:1026100039B1594A143A12680243574B143B1A60B5
:1026200006E0554A143A12688243534B143B1A6031
:10263000704739B1504A103A126802434E4B103B72
:102640001A6006E04C4A103A126882434A4B103B2B
:102650001A60704739B1484A1C3212680243464B2F
:102660001C331A6006E0444A1C3212688243424B13
:102670001C331A60704739B13F4A20321268024356
:102680003D4B20331A6006E03B4A203212688243F9
:10269000394B20331A60704739B1374A24321268F7
:1026A0000243354B24331A6006E0334A2432126861
:1026B0008243314B24331A60704739B12E4A2C3291
:1026C000126802432C4B2C331A6006E02A4A2C3243
:1026D00012688243284B2C331A60704739B1264A5E
:1026E000303212680243244B30331A6006E0224A2B
:1026F000303212688243204B30331A607047012811
:1027000008D11D493C31096841F008011A4A3C32A0
:10271000116007E018493C31096821F00801164AA8
:102720003C321160704739B1134A273A127802439C
:10273000114B273B1A7006E00F4A273A1278824362
:102740000D4B273B1A7070470B484030006840F033
:102750008070094940310860704701460020064AF0
:10276000283A12680A400AB1012000E000207047B0
:1027700001492639087070473438024010B50446C4
:10278000FE48844208D101210846FFF752FF00218C
:102790000120FFF74EFF9DE0B4F1804F08D10121E9
:1027A0000846FFF735FF00210120FFF731FF91E0D8
:1027B000F348844208D101210220FFF729FF0021BC
:1027C0000220FFF725FF85E0EE48844208D1012171
:1027D0000420FFF71DFF00210420FFF719FF79E017
:1027E000E948844208D101210820FFF711FF0021A8
:1027F0000820FFF70DFF6DE0E448844208D1012175
:102800001020FFF705FF00211020FFF701FF61E016
:10281000DF48844208D101212020FFF7F9FE002182
:102820002020FFF7F5FE55E0DA48844208D1012167
:102830000220FFF7FEFE00210220FFF7FAFE49E02A
:10284000D548844209D101210804FFF7F2FE002196
:102850004FF48030FFF7EDFE3CE0D048844209D1D0
:1028600001214804FFF7E5FE00214FF40030FFF797
:10287000E0FE2FE0CA48844209D101218804FFF715
:10288000D8FE00214FF48020FFF7D3FE22E0C54898
:10289000844208D101214020FFF7BAFE00214020E8
:1028A000FFF7B6FE16E0C048844208D1012180201F
:1028B000FFF7AEFE00218020FFF7AAFE0AE0BB482A
:1028C000844207D101218015FFF7A2FE0021A01547
:1028D000FFF79EFE10BD00220288A84B98420ED042
:1028E000AC4B98420BD0B0F1804F08D0A44B98422B
:1028F00005D0A44B984202D0A34B984204D14FF686
:102900008F731A404B881A43A04B984207D0A04BB4
:10291000984204D04FF6FF431A400B891A430280B5
:102920004B68C3620B880385944B984202D0994B45
:10293000984201D18B7A03860123838270474FF03E
:10294000FF31416000210180018141808172704727
:102950000185828270470A46002101884FF68F73F5
:10296000194011430180704741627047C16270474E
:102970000146486A70470146088D704721B10288B8
:1029800042F00202028004E002884FF6FD731A4012
:102990000280704721B1028842F00402028004E004
:1029A00002884FF6FB731A400280704721B10288FB
:1029B00042F08002028004E002884FF67F731A40E2
:1029C0000280704702884FF6F7731A40028002882F
:1029D0000A430280704702884FF6FF431A40028084
:1029E00002880A430280704721B1028842F0010246
:1029F000028004E002884FF6FE731A40028070479E
:102A000070B5002400220023058C4FF6FE76354079
:102A10000584028C8388048B4FF68F752C40B51E7D
:102A20002C400D882C43751E2A408D892A434D88E1
:102A30002A43524DA84202D0564DA84213D14FF618
:102A4000F7752A40CD892A434FF6FB752A408D88B9
:102A50002A434FF6FF652B404FF6FF552B400D8A5A
:102A60002B434D8A2B43838004838D684563028406
:102A700070BD70B5002400220023058C4FF6EF7660
:102A800035400584028C8388048B48F6FF752C4002
:102A90004FF6FF452C400D884FF6FF7606EA0525D8
:102AA0002C434FF6DF752A408D8906EA05152A4327
:102AB0004D8806EA05152A43304DA84202D0354D0F
:102AC000A8421DD14FF67F752A40CD894FF6FF767B
:102AD00006EA05152A434FF6BF752A408D8806EA97
:102AE00005152A434FF6FF352B404FF2FF752B405B
:102AF0000D8A06EA85052B434D8A06EA85052B4398
:102B0000838004838D688563028470BD70B5002462
:102B100000220023058C4FF6FF6635400584028CA9
:102B20008388848B4FF68F752C404FF6FC752C40B4
:102B30000D882C434FF6FF552A408D894FF6FF76BE
:102B400006EA05252A434D8806EA05252A430B4D4A
:102B5000A84202D00F4DA84238D14FF2FF752A404B
:102B6000CD894FF6FF7606EA05252A434FF6FF3555
:102B70002A408D8806EA05252A4319E00000014015
:102B80000004004000080040000C0040001000401D
:102B90000014004000040140004001400044014096
:102BA0000048014000180040001C00400020004088
:102BB0004EF6FF752B404DF6FF752B400D8A06EA49
:102BC00005152B434D8A06EA05152B438380848324
:102BD0008D68C563028470BD70B500220023002497
:102BE000058C4EF6FF7635400584038C8488828BF5
:102BF00048F6FF752A404FF6FF452A400D884FF6EC
:102C0000FF7606EA05252A434DF6FF752B408D8990
:102C100006EA05352B434D8806EA05352B43FE4D64
:102C2000A84202D0FD4DA84208D14BF6FF752C40BA
:102C30000D8A4FF6FF7606EA85152C438480828341
:102C40008D680564038470BD00210180418081800E
:102C500081608181C18101824182704770B50346E4
:102C6000002000241846183001258D40ACB21D8C80
:102C7000A5431D8409B108290AD100EB610005684C
:102C80004FF68F76354005600568154305600FE007
:102C90000D1FC5F34E052844056848F6FF763540FC
:102CA000056005684FF6FF7606EA022635430560A3
:102CB00070BD4163704781637047C16370470164B1
:102CC00070470A460021018B4FF68F73194011435C
:102CD000018370470A460021018B48F6FF731940B3
:102CE0004FF6FF7303EA02231943018370470A4634
:102CF0000021818B4FF68F731940114381837047F8
:102D00000A460021818B48F6FF7319404FF6FF7386
:102D100003EA02231943818370470A460021018B8D
:102D20004FF6F77319401143018370470A4600219B
:102D3000018B4FF2FF7319404FF6FF7303EA022332
:102D40001943018370470A460021818B4FF6F773C0
:102D500019401143818370470A460021818B4FF24D
:102D6000FF7319404FF6FF7303EA0223194381836F
:102D700070470A460021018B4FF6FB73194011433F
:102D8000018370470A460021018B4FF6FF3319403B
:102D90004FF6FF7303EA02231943018370470A4683
:102DA0000021818B4FF6FB731940114381837047DB
:102DB0000A460021818B4FF6FF3319404FF6FF730F
:102DC00003EA02231943818370470A460021018BDD
:102DD0004FF67F7319401143018370470A46002163
:102DE000018BC1F30E014FF6FF7303EA022319436F
:102DF000018370470A460021818B4FF67F7319408B
:102E00001143818370470A460021818BC1F30E0173
:102E10004FF6FF7303EA02231943818370470A4682
:102E20000021018C4FF6FD73194011430184704756
:102E30000A460021018C4FF6F773194011430184B3
:102E400070470A460021018C4FF6DF7319404FF698
:102E5000FF7303EA02131943018470470A460021F5
:102E6000018C4FF67F7319404FF6FF7303EA02138C
:102E70001943018470470A460021018C4FF6FF5325
:102E800019404FF6FF7303EA022319430184704788
:102E90000A460021018C4FF2FF7319404FF6FF7371
:102EA00003EA02231943018470470A460021018C7A
:102EB0004DF6FF7319404FF6FF7303EA02331943CF
:102EC0000184704730B5002301248C40A3B2048CE8
:102ED0009C430484048C02FA01F5ADB22C430484B3
:102EE00030BD30B5002304248C40A3B2048C9C4335
:102EF0000484048C02FA01F5ADB22C43048430BD85
:102F0000828B4FF2FF331A408283828B4FF6FF731E
:102F100003EA01231A4382837047F0B50C46154635
:102F2000002100220026078C4EF6FF7C07EA0C07E2
:102F30000784818B028C4FF6FF7707EA043640F650
:102F4000FF4739404FF6FF7707EA052739434FF629
:102F5000FF7707EA0337394345F6FF773A4046F4EF
:102F600080573A4381830284F0BD828B4FF6F3731E
:102F70001A408283828B0A4382837047F0B50C46E5
:102F80001546002100220026078C4FF6FF6C07EA49
:102F90000C070784818B028C4FF6FF7707EA042623
:102FA0004FF60C7739404FF6FF7707EA03172F43A8
:102FB00039434FF2FF573A4046F480773A438183D2
:102FC0000284F0BD028B4FF2FF331A400283028B62
:102FD0004FF6FF7303EA01231A4302837047F0B5EB
:102FE0000C461546002100220026078C4FF6EF7C88
:102FF00007EA0C070784018B028C4FF6FF7707EA7C
:10300000041640F6FF4739404FF6FF7707EA0337CB
:1030100039434FF6FF7703E0000001400004014010
:1030200007EA052739434FF65F773A4046F0100725
:103030003A4301830284F0BD028B4FF6F3731A40CA
:103040000283028B0A4302837047F0B50C46154693
:1030500000210022068C4FF6FE773E400684018B4D
:10306000028C4FF60C7631407E1C06EA03162E4386
:1030700031434FF6F576324044F001063243018386
:103080000284F0BD70B505460C46208850B92389EE
:10309000A28861882846FFF7D8FFE1882846FFF715
:1030A000CBFF25E0208804280AD12389A2886188E3
:1030B0002846FFF794FFE1882846FFF783FF17E0D3
:1030C000208808280AD12389A28861882846FFF72A
:1030D00055FFE1882846FFF748FF09E02389A288C9
:1030E00061882846FFF719FFE1882846FFF708FFA7
:1030F00070BD002101804180012181800021C180BB
:10310000018170472DE9F04105460C460026012754
:10311000608808B9022600E00026A088012801D1B5
:10312000022700E001272088A0B92389A2886188AE
:103130002846FFF78AFFE1882846FFF77DFF2389AD
:103140003A4631462846FFF74AFFE1882846FFF70E
:1031500039FF13E02389A28861882846FFF73FFFE3
:10316000E1882846FFF72EFF23893A463146284654
:10317000FFF76BFFE1882846FFF75EFFBDE8F081AF
:103180000146486B70470146886B70470146C86B23
:1031900070470146086C70470A884B881A438B8831
:1031A0001A43CB881A430B891A434B891A438B89DC
:1031B0001A43A0F84420704700210180418081809B
:1031C000C180018141818181704731B1B0F84420D3
:1031D00042F40042A0F8442005E0B0F84420C2F3D5
:1031E0000E02A0F84420704721B1828842F0040208
:1031F000828004E082884FF6FB731A408280704719
:1032000021B1828842F00102828004E082884FF678
:10321000FE731A40828070471AB183890B43838101
:1032200002E083898B438381704781827047024625
:103230000020138A0B400BB1012000E000207047F2
:10324000CA430282704730B50246002000230024A2
:10325000158A05EA0103958905EA010413B10CB149
:10326000012000E0002030BDCA430282704741EADD
:103270000203A0F8483070471AB183890B43838159
:1032800002E083898B438381704721B1828842F0B9
:103290000802828004E082884FF6F7731A40828029
:1032A000704701894FF6F8721140018170470A4654
:1032B000002101894FF68F73194011430181704736
:1032C00030B504460D4629462046FFF7F0FF208919
:1032D00040F00700208130BD2DE9F04104460D4645
:1032E00016461F46602D06D13B4601223146204638
:1032F000FFF775FE05E03B46012231462046FFF709
:10330000A4FE29462046FFF7D2FF208940F007009F
:103310002081BDE8F08130B50C4600210189C9B299
:103320004FF6FF7505EA032515432543294301811F
:1033300030BD2DE9F04105460E461746984600245B
:1033400043463A4631462846FFF7E5FF2C894FF6BB
:10335000F870044044F007044FF68F70044044F0C6
:1033600070042C81BDE8F081F0B504460D46164688
:103370001F463B46324629462046FFF7CCFF2089B0
:1033800040F480402081F0BD82884FF68F731A4050
:10339000828082880A438280704702894FF6F873E0
:1033A0001A40028102890A430281704702894FF65E
:1033B0007F731A40028102890A4302817047F0B587
:1033C0000C4615461E460021002200230189028B6F
:1033D000038C4FF6F877394021434FF6FC473A40CB
:1033E00040F201173A434FF6DD773B404FF6FF7747
:1033F00007EA06172F433B43018102830384F0BD94
:1034000021B1828842F08002828004E082884FF6F7
:103410007F731A4082807047A0F8501070470000F8
:1034200010B50446FA48844208D101211020FFF764
:1034300000F900211020FFF7FCF857E0F54884421E
:1034400009D101214804FFF7E3F800214FF40030CF
:10345000FFF7DEF84AE0F048844209D101218804F0
:10346000FFF7D6F800214FF48020FFF7D1F83DE0B8
:10347000EA48844209D10121C804FFF7C9F80021B4
:103480004FF40020FFF7C4F830E0E548844209D14A
:1034900001210805FFF7BCF800214FF48010FFF769
:1034A000B7F823E0DF48844208D101212020FFF74C
:1034B000C0F800212020FFF7BCF817E0DA4884426A
:1034C00009D101218807FFF7A3F800214FF08040C0
:1034D000FFF79EF80AE0D548844207D10121400554
:1034E000FFF796F800216005FFF792F810BD2DE96F
:1034F000FF4705460E460024A14600BFA046B089FE
:1035000000B100BF2C8A24F44054F08804432C827C
:10351000AC8941F20C608443B088318908437189D9
:1035200008430443AC81AC8A24F44074B08904435A
:10353000AC826846FEF7FDFEB548854202D0B94828
:10354000854202D1DDF80C9001E0DDF80890A889F1
:1035500000F4004040B109EBC90000EB09103168EC
:103560004900B0FBF1F707E009EBC90000EB0910D7
:1035700031688900B0FBF1F76420B7FBF0F004017B
:103580002009642101FB1078A88900F4004040B1B3
:10359000322000EBC800B0FBF1F000F0070004435C
:1035A00008E0322000EB08106421B0FBF1F000F0DD
:1035B0000F0004432C81BDE8FF874FF416510160D2
:1035C00000218180C18001810C2141810021818104
:1035D000704710B502460020108A20F470600B88F6
:1035E0004C8823438C882343CC8823431843108280
:1035F00010BD0021018041808180C180704721B1D0
:10360000828942F40052828104E082894DF6FF7380
:103610001A4082817047028B02F47F420283028B40
:103620000A430283704721B1828942F400428281B9
:1036300003E08289C2F30E028281704721B1828A3F
:1036400042F40062828204E0828A4FF2FF731A40E1
:1036500082827047C1F308028280704701468888E1
:10366000C0F308007047028A4FF6F0731A400282D6
:10367000028A0A430282704721B1828942F0020223
:10368000828104E082894FF6FD731A40828170477F
:1036900082894FF2FF731A40828182890A438281B4
:1036A0007047028A4FF6DF731A400282028A0A4389
:1036B0000282704721B1028A42F48042028204E011
:1036C000028A4BF6FF731A4002827047818941F0EB
:1036D00001018181704721B1828A42F00802828211
:1036E00004E0828A4FF6F7731A4082827047028B99
:1036F000D2B20283028B42EA01220283704721B1D7
:10370000828A42F02002828204E0828A4FF6DF73CE
:103710001A408282704721B1828A42F0100282826E
:1037200004E0828A4FF6EF731A4082827047828AE1
:103730004FF6FB731A408282828A0A438282704764
:1037400021B1828A42F00202828204E0828A4FF62C
:10375000FD731A40828270471AB1838A0B438382B9
:1037600002E0838A8B4383827047F0B503460024CE
:1037700000260025002040F66A17B94200D100BF9C
:103780001846C1F3421401F01F06012707FA06F597
:10379000012C01D10C3004E0022C01D1103000E0EA
:1037A00014301AB107682F43076002E00768AF437F
:1037B0000760F0BD02460020B1F5007F00D100BFD8
:1037C00013880B400BB1012000E00020704701F48A
:1037D0000072B2F5007F00D100BFCA43028070477B
:1037E00070B50246002400230025002040F66A162A
:1037F000B14200D100BFC1F3421501F01F03012601
:1038000006FA03F3012D13D19689334017E0000027
:10381000001001400044004000480040004C0040BF
:10382000005000400014014000780040007C00403F
:10383000022D02D1168A334001E0968A33400C12E1
:10384000012606FA04F41688344013B10CB10120A5
:1038500000E0002070BD10B50022002340F66A147D
:10386000A14200D100BF0A1201249440A3B2DC435C
:10387000048010BD10B504466FF00400FEF7E8FAAE
:10388000E11704EB5171C1F3C701394A11701046B9
:10389000007800EB4001C1EBC0104FF6FF7101EA68
:1038A000C0003449088010BD0146314A12784A43AD
:1038B0004FF0E0235A6100229A611A46126942F0E1
:1038C00001021A6100BF4FF0E022106900F001020E
:1038D0001AB100F48032002AF5D04FF0E0221269CC
:1038E00022F001024FF0E0231A6100229A61704732
:1038F0000146204A12884A434FF0E0235A610022D1
:103900009A611A46126942F001021A6100BF4FF033
:10391000E022106900F001021AB100F48032002A9E
:10392000F5D04FF0E022126922F001024FF0E023BF
:103930001A6100229A61704770B504464FF407700F
:1039400094FBF0F0C6B24FF4077094FBF0F100FB6B
:10395000114085B205E04FF40770FFF7C9FF701EF4
:10396000C6B2002EF7D115B12846FFF7C1FF70BDD2
:1039700030010020320100207047704770477546C3
:1039800000F02CF8AE4605006946534620F00700CB
:10399000854618B020B5FEF7F7F9BDE820404FF096
:1039A00000064FF000074FF000084FF0000B21F029
:1039B0000701AC46ACE8C009ACE8C009ACE8C009F6
:1039C000ACE8C0098D46704710B50446AFF30080DF
:1039D0002046BDE81040FCF740BC0000004870479E
:1039E0004001002001491820ABBEFEE7260002007E
:1039F000704700002DE9C04130B4DFF8A0C23CEAB6
:103A0000111418BF3CEA131400F0EC8081EA03059E
:103A10001CEA111444EAD57418BF1CEA131500F00F
:103A2000C780A4EB05044FF0004545EAC12145EAF3
:103A3000C32341EA505143EA525304F17F7499423F
:103A400004F500344FEAC0204FEAC22208BF90427A
:103A500000F09C804FEA13650FF24016765D4FEA46
:103A6000134506FB05F7C7F1807706FB07F74FEA1A
:103A7000D737A7FB03687642C8F58038A7FB06CE88
:103A800038BFA8F1010807FB08E64FF0000EA6FBBF
:103A9000028CE6FB03CEDCF1000CCEF1004E38BF09
:103AA000AEF1010EA6FB0C584FF000074FF00005D9
:103AB000E6FB0E87A1FB08C6A0FB07CE16EB0E06A1
:103AC00045F10005E1FB076515F1E04E7EBFA4F569
:103AD00080345FEA46066D4116F1800745F1000526
:103AE0004FEA17274FEA066647EA0567A6F1DE4662
:103AF000B6F1805F4FEA15251FD9384624F0010C36
:103B000005EBC471BCF1FE6F01EB0C1102D8F0BCE7
:103B1000BDE8008124425CBF01F5801E9EEAC47F9F
:103B200002D4F0BCBDE80081244238D4F0BCA1F13D
:103B3000C041BDE8004100F045B94FEAD22242EA57
:103B400043524FEAD323A7FB02864FEAD02040EA34
:103B5000415007FB03661EEA0E0F4FEAD12105FB19
:103B6000026658BFA6EB0056B6EB00564FEA520E5F
:103B70004EEAC37E18EB0E0E56EB530EBDD518EB76
:103B800002085E417F1C55F10005B6E74FF4801531
:103B90004FF000074FF000064FF00008ADE7F0BC13
:103BA0004FF0000001F1C04101F00041BDE800818B
:103BB00011EA0C1F0CEA131500D00CE013EA0C1FDD
:103BC00000F025804FF00000F0BC81EA030101F015
:103BD0000041BDE80081F0BCBDE8004181EA03017D
:103BE00000F0F0B8F0BCBDE8004170B500F09CF802
:103BF000097EFC3E00F007B881EA03014FF00000A7
:103C000001F00041704781EA030100F0DBB8F0BC2D
:103C1000BDE800414FF0000021497047FFFDFBF96E
:103C2000F7F5F4F2F0EEEDEBE9E8E6E4E3E1E0DEEF
:103C3000DDDBDAD8D7D5D4D3D1D0CFCDCCCBCAC861
:103C4000C7C6C5C4C2C1C0BFBEBDBCBBBAB9B8B788
:103C5000B6B5B4B3B2B1B0AFAEADACABAAA9A8A87B
:103C6000A7A6A5A4A3A3A2A1A09F9F9E9D9C9C9B49
:103C70009A999998979796959594939392919190F4
:103C80008F8F8E8E8D8C8C8B8B8A89898888878785
:103C90008685858484838382828181800000FF07FA
:103CA0000000F87F4FEA41034FEA5353A3F58063C6
:103CB000D3F11E03C8BFD3F1210C0CDD4FF000423D
:103CC00042EAC12242EA505232FA03FC8CEAE17C19
:103CD000ACEBE1707047102BC4BF0020704703F5B8
:103CE000787CBCF1FF3F04D06FF0004282EA2100F3
:103CF000704770B500F018F8499224800020704792
:103D0000F2E7B0FA80F310FA03F10AD0C3F11D0311
:103D100003F580634FEA41504FEA035202EBD12191
:103D200070474FF0000070470EF1020E2EF0030EA8
:103D30005EF8046B364205D4012A43EB030515F502
:103D4000001F12D8012841EB010C1CF5001F0CD8F4
:103D50000ED14FEAD17C15F5001F0CEB4C0C0CF189
:103D6000020C08BF4CEBD37C04E04FF0080C01E0E0
:103D70004FEAD37C0CEB4C0526FA05F606F0070655
:103D8000B6F1040C06D20EEB860CBDE870404CF088
:103D9000010C6047DFE80CF0090B02024FF0004114
:103DA0004FF00000A1F5002170BD19461046012812
:103DB00051EB010418BFD4F5001484BF002001F0BA
:103DC000004170BD0808A0F500114FEA31017047AD
:103DD0004FF04070E1EE100A70470000FC3D000813
:103DE0000000002034010000C4010008783E0008F3
:103DF000340100206C0600002002000811847A03C0
:103E00000A300A010203040607080922E9043920DE
:103E1000091904C15AFF01091B24B17214328272BC
:103E20004132473285327E723F3240328134AABB02
:103E3000064D0C01111C0A280808013138AABB05DF
:103E400066361011AABB10B405100249276D070190
:103E500001070A6B02040A11290799971201380D0C
:103E6000020201020902020803020704462D0102B0
:083E70000304044506070809DC
:040000050800018965
:00000001FF
